{"abi":[{"type":"constructor","inputs":[{"name":"priceFeed","type":"address","internalType":"address"}],"stateMutability":"nonpayable"},{"type":"fallback","stateMutability":"payable"},{"type":"receive","stateMutability":"payable"},{"type":"function","name":"MINIMUM_USD","inputs":[],"outputs":[{"name":"","type":"uint256","internalType":"uint256"}],"stateMutability":"view"},{"type":"function","name":"cheaperWithdraw","inputs":[],"outputs":[],"stateMutability":"nonpayable"},{"type":"function","name":"fund","inputs":[],"outputs":[],"stateMutability":"payable"},{"type":"function","name":"getAddressToAmountFunded","inputs":[{"name":"fundingAddress","type":"address","internalType":"address"}],"outputs":[{"name":"","type":"uint256","internalType":"uint256"}],"stateMutability":"view"},{"type":"function","name":"getFunder","inputs":[{"name":"index","type":"uint256","internalType":"uint256"}],"outputs":[{"name":"","type":"address","internalType":"address"}],"stateMutability":"view"},{"type":"function","name":"getOwner","inputs":[],"outputs":[{"name":"","type":"address","internalType":"address"}],"stateMutability":"view"},{"type":"function","name":"getVersion","inputs":[],"outputs":[{"name":"","type":"uint256","internalType":"uint256"}],"stateMutability":"view"},{"type":"function","name":"s_funders","inputs":[{"name":"","type":"uint256","internalType":"uint256"}],"outputs":[{"name":"","type":"address","internalType":"address"}],"stateMutability":"view"},{"type":"function","name":"withdraw","inputs":[],"outputs":[],"stateMutability":"nonpayable"},{"type":"error","name":"FundMe__NotOwner","inputs":[]}],"bytecode":{"object":"0x60a060405234801561001057600080fd5b506040516109af3803806109af83398101604081905261002f91610058565b33608052600280546001600160a01b0319166001600160a01b0392909216919091179055610088565b60006020828403121561006a57600080fd5b81516001600160a01b038116811461008157600080fd5b9392505050565b6080516108fe6100b16000396000818161017701528181610329015261049a01526108fe6000f3fe60806040526004361061008a5760003560e01c80636b69a592116100595780636b69a5921461014c578063893d20e814610168578063b60d428814610099578063be2693f01461019b578063d7b4750c146101b057610099565b80630343fb25146100a15780630d8e6e2c146100ea5780633ccfd60b146100ff57806354861af71461011457610099565b36610099576100976101d0565b005b6100976101d0565b3480156100ad57600080fd5b506100d76100bc36600461073d565b6001600160a01b031660009081526020819052604090205490565b6040519081526020015b60405180910390f35b3480156100f657600080fd5b506100d76102ab565b34801561010b57600080fd5b5061009761031e565b34801561012057600080fd5b5061013461012f366004610766565b610465565b6040516001600160a01b0390911681526020016100e1565b34801561015857600080fd5b506100d7674563918244f4000081565b34801561017457600080fd5b507f0000000000000000000000000000000000000000000000000000000000000000610134565b3480156101a757600080fd5b5061009761048f565b3480156101bc57600080fd5b506101346101cb366004610766565b6105d8565b600254674563918244f40000906101f19034906001600160a01b0316610608565b10156102445760405162461bcd60e51b815260206004820152601b60248201527f596f75206e65656420746f207370656e64206d6f72652045544821000000000060448201526064015b60405180910390fd5b3360009081526020819052604081208054349290610263908490610795565b90915550506001805480820182556000919091527fb10e2d527612073b26eecdfd717e6a320cf44b4afac2b0732d9fcbe2b7fa0cf60180546001600160a01b03191633179055565b6002546040805163054fd4d560e41b815290516000926001600160a01b0316916354fd4d509160048083019260209291908290030181865afa1580156102f5573d6000803e3d6000fd5b505050506040513d601f19601f8201168201806040525081019061031991906107a8565b905090565b336001600160a01b037f000000000000000000000000000000000000000000000000000000000000000016146103675760405163579610db60e01b815260040160405180910390fd5b60005b6001548110156103bd57600060018281548110610389576103896107c1565b60009182526020808320909101546001600160a01b03168252819052604081205550806103b5816107d7565b91505061036a565b5060408051600081526020810191829052516103db916001916106c3565b50604051600090339047908381818185875af1925050503d806000811461041e576040519150601f19603f3d011682016040523d82523d6000602084013e610423565b606091505b50509050806104625760405162461bcd60e51b815260206004820152600b60248201526a10d85b1b0819985a5b195960aa1b604482015260640161023b565b50565b6001818154811061047557600080fd5b6000918252602090912001546001600160a01b0316905081565b336001600160a01b037f000000000000000000000000000000000000000000000000000000000000000016146104d85760405163579610db60e01b815260040160405180910390fd5b60015460005b8181101561052f576000600182815481106104fb576104fb6107c1565b60009182526020808320909101546001600160a01b0316825281905260408120555080610527816107d7565b9150506104de565b50604080516000815260208101918290525161054d916001916106c3565b50604051600090339047908381818185875af1925050503d8060008114610590576040519150601f19603f3d011682016040523d82523d6000602084013e610595565b606091505b50509050806105d45760405162461bcd60e51b815260206004820152600b60248201526a10d85b1b0819985a5b195960aa1b604482015260640161023b565b5050565b6000600182815481106105ed576105ed6107c1565b6000918252602090912001546001600160a01b031692915050565b60008061061483610640565b90506000670de0b6b3a764000061062b86846107f0565b6106359190610807565b925050505b92915050565b600080826001600160a01b031663feaf968c6040518163ffffffff1660e01b815260040160a060405180830381865afa158015610681573d6000803e3d6000fd5b505050506040513d601f19601f820116820180604052508101906106a59190610848565b505050915050806402540be4006106bc9190610898565b9392505050565b828054828255906000526020600020908101928215610718579160200282015b8281111561071857825182546001600160a01b0319166001600160a01b039091161782556020909201916001909101906106e3565b50610724929150610728565b5090565b5b808211156107245760008155600101610729565b60006020828403121561074f57600080fd5b81356001600160a01b03811681146106bc57600080fd5b60006020828403121561077857600080fd5b5035919050565b634e487b7160e01b600052601160045260246000fd5b8082018082111561063a5761063a61077f565b6000602082840312156107ba57600080fd5b5051919050565b634e487b7160e01b600052603260045260246000fd5b6000600182016107e9576107e961077f565b5060010190565b808202811582820484141761063a5761063a61077f565b60008261082457634e487b7160e01b600052601260045260246000fd5b500490565b805169ffffffffffffffffffff8116811461084357600080fd5b919050565b600080600080600060a0868803121561086057600080fd5b61086986610829565b945060208601519350604086015192506060860151915061088c60808701610829565b90509295509295909350565b80820260008212600160ff1b841416156108b4576108b461077f565b818105831482151761063a5761063a61077f56fea26469706673582212203539f79e27fb9b04f9c860ed34f394636f58d44b9f7251bdf331d30bc593e5ab64736f6c63430008130033","linkReferences":{}},"methodIdentifiers":{"MINIMUM_USD()":"6b69a592","cheaperWithdraw()":"be2693f0","fund()":"b60d4288","getAddressToAmountFunded(address)":"0343fb25","getFunder(uint256)":"d7b4750c","getOwner()":"893d20e8","getVersion()":"0d8e6e2c","s_funders(uint256)":"54861af7","withdraw()":"3ccfd60b"},"id":24}